{
  "transactions": [
    {
      "hash": "0xe07aead7d77bfd89c28077414a5ea9a3e8550e0aa38020793075c1e9a36ae5b9",
      "transactionType": "CALL",
      "contractName": "ERC721CloneableTBA",
      "contractAddress": "0xe931e45265b58a77328B0c0bABcb6Af417c18154",
      "function": "mint(address,uint256):(address)",
      "arguments": [
        "0x42C7eF198f8aC9888E2B1b73e5B71f1D4535194A",
        "1"
      ],
      "transaction": {
        "type": "0x02",
        "from": "0x42c7ef198f8ac9888e2b1b73e5b71f1d4535194a",
        "to": "0xe931e45265b58a77328b0c0babcb6af417c18154",
        "gas": "0x4fe0e",
        "value": "0x0",
        "data": "0x40c10f1900000000000000000000000042c7ef198f8ac9888e2b1b73e5b71f1d4535194a0000000000000000000000000000000000000000000000000000000000000001",
        "nonce": "0xbd",
        "accessList": []
      },
      "additionalContracts": [
        {
          "transactionType": "CREATE2",
          "address": "0x989d3a8883EBd58032aD5E569941b4E3BbEa8769",
          "initCode": "3d60ad80600a3d3981f3363d3d373d3d3d363d73cb732ebe48daaf08e9f7c3d14968a5f1e72a045a5af43d82803e903d91602b57fd5bf300000000000000000000000000000000000000000000000000000000000000000000000000000000000000000000000000000000000000000000000000000005000000000000000000000000e931e45265b58a77328b0c0babcb6af417c181540000000000000000000000000000000000000000000000000000000000000001"
        }
      ],
      "isFixedGasLimit": false
    },
    {
      "hash": "0xeb995d5ce604c1aaf9dbeab74b1150eb4f218b426dfa70c5ab43a35eec3f0f6e",
      "transactionType": "CALL",
      "contractName": null,
      "contractAddress": "0x16772Fa6F9a9bEf7a20eA93932F07b3D97aDe7fb",
      "function": "mint(address,uint256,uint256)",
      "arguments": [
        "0x42C7eF198f8aC9888E2B1b73e5B71f1D4535194A",
        "1",
        "100"
      ],
      "transaction": {
        "type": "0x02",
        "from": "0x42c7ef198f8ac9888e2b1b73e5b71f1d4535194a",
        "to": "0x16772fa6f9a9bef7a20ea93932f07b3d97ade7fb",
        "gas": "0x12c47",
        "value": "0x0",
        "data": "0x156e29f600000000000000000000000042c7ef198f8ac9888e2b1b73e5b71f1d4535194a00000000000000000000000000000000000000000000000000000000000000010000000000000000000000000000000000000000000000000000000000000064",
        "nonce": "0xbe",
        "accessList": []
      },
      "additionalContracts": [],
      "isFixedGasLimit": false
    },
    {
      "hash": "0x67daba5fe97dd9c1b021d149ee7b44a172530d8a477b4059f118daf479c20017",
      "transactionType": "CALL",
      "contractName": null,
      "contractAddress": "0x16772Fa6F9a9bEf7a20eA93932F07b3D97aDe7fb",
      "function": "mint(address,uint256,uint256)",
      "arguments": [
        "0x42C7eF198f8aC9888E2B1b73e5B71f1D4535194A",
        "2",
        "100"
      ],
      "transaction": {
        "type": "0x02",
        "from": "0x42c7ef198f8ac9888e2b1b73e5b71f1d4535194a",
        "to": "0x16772fa6f9a9bef7a20ea93932f07b3d97ade7fb",
        "gas": "0x12c47",
        "value": "0x0",
        "data": "0x156e29f600000000000000000000000042c7ef198f8ac9888e2b1b73e5b71f1d4535194a00000000000000000000000000000000000000000000000000000000000000020000000000000000000000000000000000000000000000000000000000000064",
        "nonce": "0xbf",
        "accessList": []
      },
      "additionalContracts": [],
      "isFixedGasLimit": false
    }
  ],
  "receipts": [
    {
      "transactionHash": "0xe07aead7d77bfd89c28077414a5ea9a3e8550e0aa38020793075c1e9a36ae5b9",
      "transactionIndex": "0x0",
      "blockHash": "0x3594323329da9b3b4fe74bf50cedc0c6fc6376b0561c4bf014bea64934350fda",
      "blockNumber": "0x8fbc80",
      "from": "0x42C7eF198f8aC9888E2B1b73e5B71f1D4535194A",
      "to": "0xe931e45265b58a77328B0c0bABcb6Af417c18154",
      "cumulativeGasUsed": "0x369ef",
      "gasUsed": "0x369ef",
      "contractAddress": null,
      "logs": [
        {
          "address": "0xb6F028F59c95F09331776069ccd2bEf85b0C2b1E",
          "topics": [
            "0x07fba7bba1191da7ee1155dcfa0030701c9c9a9cc34a93b991fc6fd0c9268d8f"
          ],
          "data": "0x000000000000000000000000989d3a8883ebd58032ad5e569941b4e3bbea8769000000000000000000000000cb732ebe48daaf08e9f7c3d14968a5f1e72a045a0000000000000000000000000000000000000000000000000000000000000005000000000000000000000000e931e45265b58a77328b0c0babcb6af417c1815400000000000000000000000000000000000000000000000000000000000000010000000000000000000000000000000000000000000000000000000000000000",
          "blockHash": "0x3594323329da9b3b4fe74bf50cedc0c6fc6376b0561c4bf014bea64934350fda",
          "blockNumber": "0x8fbc80",
          "transactionHash": "0xe07aead7d77bfd89c28077414a5ea9a3e8550e0aa38020793075c1e9a36ae5b9",
          "transactionIndex": "0x0",
          "logIndex": "0x0",
          "removed": false
        },
        {
          "address": "0xe931e45265b58a77328B0c0bABcb6Af417c18154",
          "topics": [
            "0xddf252ad1be2c89b69c2b068fc378daa952ba7f163c4a11628f55a4df523b3ef",
            "0x0000000000000000000000000000000000000000000000000000000000000000",
            "0x00000000000000000000000042c7ef198f8ac9888e2b1b73e5b71f1d4535194a",
            "0x0000000000000000000000000000000000000000000000000000000000000001"
          ],
          "data": "0x",
          "blockHash": "0x3594323329da9b3b4fe74bf50cedc0c6fc6376b0561c4bf014bea64934350fda",
          "blockNumber": "0x8fbc80",
          "transactionHash": "0xe07aead7d77bfd89c28077414a5ea9a3e8550e0aa38020793075c1e9a36ae5b9",
          "transactionIndex": "0x0",
          "logIndex": "0x1",
          "removed": false
        }
      ],
      "status": "0x1",
      "logsBloom": "0x00000000000000000000000000000000000000000000000000000000000000000000000000000000000000000000000000000000000000000000000000040002000000000000000100000008000000000000000000040000000000000000010000000000020000000000000001000800000000200008000000000010000000000080000000000000000000000000000000000000000000000000000000000000000000000000000000800000000000000000000000000000000000000000000000000002000000000000000000000000000000000000000000000000000060000000001000000000000000000400000000000000000000000000002000000000",
      "type": "0x2",
      "effectiveGasPrice": "0x11250c2bf"
    },
    {
      "transactionHash": "0xeb995d5ce604c1aaf9dbeab74b1150eb4f218b426dfa70c5ab43a35eec3f0f6e",
      "transactionIndex": "0x1",
      "blockHash": "0x3594323329da9b3b4fe74bf50cedc0c6fc6376b0561c4bf014bea64934350fda",
      "blockNumber": "0x8fbc80",
      "from": "0x42C7eF198f8aC9888E2B1b73e5B71f1D4535194A",
      "to": "0x16772Fa6F9a9bEf7a20eA93932F07b3D97aDe7fb",
      "cumulativeGasUsed": "0x43741",
      "gasUsed": "0xcd52",
      "contractAddress": null,
      "logs": [
        {
          "address": "0x16772Fa6F9a9bEf7a20eA93932F07b3D97aDe7fb",
          "topics": [
            "0xc3d58168c5ae7397731d063d5bbf3d657854427343f4c083240f7aacaa2d0f62",
            "0x00000000000000000000000042c7ef198f8ac9888e2b1b73e5b71f1d4535194a",
            "0x0000000000000000000000000000000000000000000000000000000000000000",
            "0x00000000000000000000000042c7ef198f8ac9888e2b1b73e5b71f1d4535194a"
          ],
          "data": "0x00000000000000000000000000000000000000000000000000000000000000010000000000000000000000000000000000000000000000000000000000000064",
          "blockHash": "0x3594323329da9b3b4fe74bf50cedc0c6fc6376b0561c4bf014bea64934350fda",
          "blockNumber": "0x8fbc80",
          "transactionHash": "0xeb995d5ce604c1aaf9dbeab74b1150eb4f218b426dfa70c5ab43a35eec3f0f6e",
          "transactionIndex": "0x1",
          "logIndex": "0x2",
          "removed": false
        }
      ],
      "status": "0x1",
      "logsBloom": "0x00000000000000000000000000000000000000000000000000000000000000000000000000000000000000000000000000000000000000000000000000002000000000000000000100000000000080000000000000000000000000000000000000000000020000000000000000000800000000000000000000000000000000000000000000000000000000000000000000000000100000000000000000000000000000000400000000800000000000000000000000000000000000000000000000000000000000000000000000000000000000000008000000000000000020000000000000000000000000000400000000000000000000000000080000000000",
      "type": "0x2",
      "effectiveGasPrice": "0x11250c2bf"
    },
    {
      "transactionHash": "0x67daba5fe97dd9c1b021d149ee7b44a172530d8a477b4059f118daf479c20017",
      "transactionIndex": "0x2",
      "blockHash": "0x3594323329da9b3b4fe74bf50cedc0c6fc6376b0561c4bf014bea64934350fda",
      "blockNumber": "0x8fbc80",
      "from": "0x42C7eF198f8aC9888E2B1b73e5B71f1D4535194A",
      "to": "0x16772Fa6F9a9bEf7a20eA93932F07b3D97aDe7fb",
      "cumulativeGasUsed": "0x50493",
      "gasUsed": "0xcd52",
      "contractAddress": null,
      "logs": [
        {
          "address": "0x16772Fa6F9a9bEf7a20eA93932F07b3D97aDe7fb",
          "topics": [
            "0xc3d58168c5ae7397731d063d5bbf3d657854427343f4c083240f7aacaa2d0f62",
            "0x00000000000000000000000042c7ef198f8ac9888e2b1b73e5b71f1d4535194a",
            "0x0000000000000000000000000000000000000000000000000000000000000000",
            "0x00000000000000000000000042c7ef198f8ac9888e2b1b73e5b71f1d4535194a"
          ],
          "data": "0x00000000000000000000000000000000000000000000000000000000000000020000000000000000000000000000000000000000000000000000000000000064",
          "blockHash": "0x3594323329da9b3b4fe74bf50cedc0c6fc6376b0561c4bf014bea64934350fda",
          "blockNumber": "0x8fbc80",
          "transactionHash": "0x67daba5fe97dd9c1b021d149ee7b44a172530d8a477b4059f118daf479c20017",
          "transactionIndex": "0x2",
          "logIndex": "0x3",
          "removed": false
        }
      ],
      "status": "0x1",
      "logsBloom": "0x00000000000000000000000000000000000000000000000000000000000000000000000000000000000000000000000000000000000000000000000000002000000000000000000100000000000080000000000000000000000000000000000000000000020000000000000000000800000000000000000000000000000000000000000000000000000000000000000000000000100000000000000000000000000000000400000000800000000000000000000000000000000000000000000000000000000000000000000000000000000000000008000000000000000020000000000000000000000000000400000000000000000000000000080000000000",
      "type": "0x2",
      "effectiveGasPrice": "0x11250c2bf"
    }
  ],
  "libraries": [],
  "pending": [],
  "returns": {},
  "timestamp": 1690505451,
  "chain": 5,
  "multi": false,
  "commit": "5feee48"
}