{
  "transactions": [
    {
      "hash": "0xe07aead7d77bfd89c28077414a5ea9a3e8550e0aa38020793075c1e9a36ae5b9",
      "transactionType": "CALL",
      "contractName": "ERC721CloneableTBA",
      "contractAddress": "0xe931e45265b58a77328B0c0bABcb6Af417c18154",
      "function": "mint(address,uint256):(address)",
      "arguments": [
        "0x42C7eF198f8aC9888E2B1b73e5B71f1D4535194A",
        "1"
      ],
      "transaction": {
        "type": "0x02",
        "from": "0x42c7ef198f8ac9888e2b1b73e5b71f1d4535194a",
        "to": "0xe931e45265b58a77328b0c0babcb6af417c18154",
        "gas": "0x4fe0e",
        "value": "0x0",
        "data": "0x40c10f1900000000000000000000000042c7ef198f8ac9888e2b1b73e5b71f1d4535194a0000000000000000000000000000000000000000000000000000000000000001",
        "nonce": "0xbd",
        "accessList": []
      },
      "additionalContracts": [
        {
          "transactionType": "CREATE2",
          "address": "0x989d3a8883EBd58032aD5E569941b4E3BbEa8769",
          "initCode": "3d60ad80600a3d3981f3363d3d373d3d3d363d73cb732ebe48daaf08e9f7c3d14968a5f1e72a045a5af43d82803e903d91602b57fd5bf300000000000000000000000000000000000000000000000000000000000000000000000000000000000000000000000000000000000000000000000000000005000000000000000000000000e931e45265b58a77328b0c0babcb6af417c181540000000000000000000000000000000000000000000000000000000000000001"
        }
      ],
      "isFixedGasLimit": false
    },
    {
      "hash": "0xeb995d5ce604c1aaf9dbeab74b1150eb4f218b426dfa70c5ab43a35eec3f0f6e",
      "transactionType": "CALL",
      "contractName": null,
      "contractAddress": "0x16772Fa6F9a9bEf7a20eA93932F07b3D97aDe7fb",
      "function": "mint(address,uint256,uint256)",
      "arguments": [
        "0x42C7eF198f8aC9888E2B1b73e5B71f1D4535194A",
        "1",
        "100"
      ],
      "transaction": {
        "type": "0x02",
        "from": "0x42c7ef198f8ac9888e2b1b73e5b71f1d4535194a",
        "to": "0x16772fa6f9a9bef7a20ea93932f07b3d97ade7fb",
        "gas": "0x12c47",
        "value": "0x0",
        "data": "0x156e29f600000000000000000000000042c7ef198f8ac9888e2b1b73e5b71f1d4535194a00000000000000000000000000000000000000000000000000000000000000010000000000000000000000000000000000000000000000000000000000000064",
        "nonce": "0xbe",
        "accessList": []
      },
      "additionalContracts": [],
      "isFixedGasLimit": false
    },
    {
      "hash": "0x67daba5fe97dd9c1b021d149ee7b44a172530d8a477b4059f118daf479c20017",
      "transactionType": "CALL",
      "contractName": null,
      "contractAddress": "0x16772Fa6F9a9bEf7a20eA93932F07b3D97aDe7fb",
      "function": "mint(address,uint256,uint256)",
      "arguments": [
        "0x42C7eF198f8aC9888E2B1b73e5B71f1D4535194A",
        "2",
        "100"
      ],
      "transaction": {
        "type": "0x02",
        "from": "0x42c7ef198f8ac9888e2b1b73e5b71f1d4535194a",
        "to": "0x16772fa6f9a9bef7a20ea93932f07b3d97ade7fb",
        "gas": "0x12c47",
        "value": "0x0",
        "data": "0x156e29f600000000000000000000000042c7ef198f8ac9888e2b1b73e5b71f1d4535194a00000000000000000000000000000000000000000000000000000000000000020000000000000000000000000000000000000000000000000000000000000064",
        "nonce": "0xbf",
        "accessList": []
      },
      "additionalContracts": [],
      "isFixedGasLimit": false
    }
  ],
  "receipts": [],
  "libraries": [],
  "pending": [
    "0xe07aead7d77bfd89c28077414a5ea9a3e8550e0aa38020793075c1e9a36ae5b9",
    "0xeb995d5ce604c1aaf9dbeab74b1150eb4f218b426dfa70c5ab43a35eec3f0f6e",
    "0x67daba5fe97dd9c1b021d149ee7b44a172530d8a477b4059f118daf479c20017"
  ],
  "returns": {},
  "timestamp": 1690505438,
  "chain": 5,
  "multi": false,
  "commit": "5feee48"
}