{
  "transactions": [
    {
      "hash": "0x14cb5d0f6ae5a91aa9ec2ac858832163bb4fcfe9b8b321aba63a633f4f241537",
      "transactionType": "CALL",
      "contractName": null,
      "contractAddress": "0x16772Fa6F9a9bEf7a20eA93932F07b3D97aDe7fb",
      "function": "initialize(string,address,address)",
      "arguments": [
        "https://ipfs.io/ipfs/QmQ69FLzJP875RbZS7GNpeWibuv2jZW3NFBi8DekyoUaf4",
        "0x42C7eF198f8aC9888E2B1b73e5B71f1D4535194A",
        "0x42C7eF198f8aC9888E2B1b73e5B71f1D4535194A"
      ],
      "transaction": {
        "type": "0x02",
        "from": "0x42c7ef198f8ac9888e2b1b73e5b71f1d4535194a",
        "to": "0x16772fa6f9a9bef7a20ea93932f07b3d97ade7fb",
        "gas": "0xdd69",
        "value": "0x0",
        "data": "0x463fd1af000000000000000000000000000000000000000000000000000000000000006000000000000000000000000042c7ef198f8ac9888e2b1b73e5b71f1d4535194a00000000000000000000000042c7ef198f8ac9888e2b1b73e5b71f1d4535194a000000000000000000000000000000000000000000000000000000000000004368747470733a2f2f697066732e696f2f697066732f516d513639464c7a4a5038373552625a5337474e70655769627576326a5a57334e4642693844656b796f556166340000000000000000000000000000000000000000000000000000000000",
        "nonce": "0xbc",
        "accessList": []
      },
      "additionalContracts": [],
      "isFixedGasLimit": false
    }
  ],
  "receipts": [
    {
      "transactionHash": "0x14cb5d0f6ae5a91aa9ec2ac858832163bb4fcfe9b8b321aba63a633f4f241537",
      "transactionIndex": "0xc",
      "blockHash": "0xdc4679c2dc30945d8c5743c53bb27b8aaf0fb61a73eab85c6b4bb81027c1d3fd",
      "blockNumber": "0x8fbc28",
      "from": "0x42C7eF198f8aC9888E2B1b73e5B71f1D4535194A",
      "to": "0x16772Fa6F9a9bEf7a20eA93932F07b3D97aDe7fb",
      "cumulativeGasUsed": "0x2cc05b",
      "gasUsed": "0xa04d",
      "contractAddress": null,
      "logs": [],
      "status": "0x1",
      "logsBloom": "0x00000000000000000000000000000000000000000000000000000000000000000000000000000000000000000000000000000000000000000000000000000000000000000000000000000000000000000000000000000000000000000000000000000000000000000000000000000000000000000000000000000000000000000000000000000000000000000000000000000000000000000000000000000000000000000000000000000000000000000000000000000000000000000000000000000000000000000000000000000000000000000000000000000000000000000000000000000000000000000000000000000000000000000000000000000000",
      "type": "0x2",
      "effectiveGasPrice": "0xb3c7d692"
    }
  ],
  "libraries": [],
  "pending": [],
  "returns": {},
  "timestamp": 1690504059,
  "chain": 5,
  "multi": false,
  "commit": "5feee48"
}